{
  "transactions": [
    {
      "hash": "0xc2975841c8176c2da06993bf7809b3dcdfd868f274973c304791c73482216ca5",
      "transactionType": "CALL",
      "contractName": null,
      "contractAddress": "0x1a44076050125825900e736c501f859c50fe728c",
      "function": "setConfig(address,address,(uint32,uint32,bytes)[])",
      "arguments": [
        "0x4FeB6c50a69D0Cb29F77E307249C767607b04408",
        "0xc02Ab410f0734EFa3F14628780e6e695156024C2",
        "[(30184, 2, 0x0000000000000000000000000000000000000000000000000000000000000020000000000000000000000000000000000000000000000000000000000000000f00000000000000000000000000000000000000000000000000000000000000000000000000000000000000000000000000000000000000000000000000000003000000000000000000000000000000000000000000000000000000000000000200000000000000000000000000000000000000000000000000000000000000c000000000000000000000000000000000000000000000000000000000000000e000000000000000000000000000000000000000000000000000000000000000000000000000000000000000000000000000000000000000000000000000000003000000000000000000000000373a6e5c0c4e89e24819f00aa37ea370917aaff400000000000000000000000058249a2ec05c1978bf21df1f5ec1847e42455cf4000000000000000000000000a4fe5a5b9a846458a70cd0748228aed3bf65c2cd)]"
      ],
      "transaction": {
        "from": "0x6969acca95b7fb9631a114085eeebd161ec19f25",
        "to": "0x1a44076050125825900e736c501f859c50fe728c",
        "gas": "0xc585a",
        "value": "0x0",
        "input": "0x6dbd9f900000000000000000000000004feb6c50a69d0cb29f77e307249c767607b04408000000000000000000000000c02ab410f0734efa3f14628780e6e695156024c200000000000000000000000000000000000000000000000000000000000000600000000000000000000000000000000000000000000000000000000000000001000000000000000000000000000000000000000000000000000000000000002000000000000000000000000000000000000000000000000000000000000075e80000000000000000000000000000000000000000000000000000000000000002000000000000000000000000000000000000000000000000000000000000006000000000000000000000000000000000000000000000000000000000000001800000000000000000000000000000000000000000000000000000000000000020000000000000000000000000000000000000000000000000000000000000000f00000000000000000000000000000000000000000000000000000000000000000000000000000000000000000000000000000000000000000000000000000003000000000000000000000000000000000000000000000000000000000000000200000000000000000000000000000000000000000000000000000000000000c000000000000000000000000000000000000000000000000000000000000000e000000000000000000000000000000000000000000000000000000000000000000000000000000000000000000000000000000000000000000000000000000003000000000000000000000000373a6e5c0c4e89e24819f00aa37ea370917aaff400000000000000000000000058249a2ec05c1978bf21df1f5ec1847e42455cf4000000000000000000000000a4fe5a5b9a846458a70cd0748228aed3bf65c2cd",
        "nonce": "0x94",
        "chainId": "0x1"
      },
      "additionalContracts": [],
      "isFixedGasLimit": false
    }
  ],
  "receipts": [
    {
      "status": "0x1",
      "cumulativeGasUsed": "0x120e21e",
      "logs": [
        {
          "address": "0xc02ab410f0734efa3f14628780e6e695156024c2",
          "topics": [
            "0x82118522aa536ac0e96cc5c689407ae42b89d592aa133890a01f1509842f5081"
          ],
          "data": "0x0000000000000000000000004feb6c50a69d0cb29f77e307249c767607b0440800000000000000000000000000000000000000000000000000000000000075e80000000000000000000000000000000000000000000000000000000000000060000000000000000000000000000000000000000000000000000000000000000f00000000000000000000000000000000000000000000000000000000000000000000000000000000000000000000000000000000000000000000000000000003000000000000000000000000000000000000000000000000000000000000000200000000000000000000000000000000000000000000000000000000000000c000000000000000000000000000000000000000000000000000000000000000e000000000000000000000000000000000000000000000000000000000000000000000000000000000000000000000000000000000000000000000000000000003000000000000000000000000373a6e5c0c4e89e24819f00aa37ea370917aaff400000000000000000000000058249a2ec05c1978bf21df1f5ec1847e42455cf4000000000000000000000000a4fe5a5b9a846458a70cd0748228aed3bf65c2cd",
          "blockHash": "0xb052152d45a01fefc57d00e26e3800832cf5b4ab1c5ca576007a1f0a88f547cf",
          "blockNumber": "0x162830b",
          "blockTimestamp": "0x68af2147",
          "transactionHash": "0xc2975841c8176c2da06993bf7809b3dcdfd868f274973c304791c73482216ca5",
          "transactionIndex": "0xa0",
          "logIndex": "0x392",
          "removed": false
        }
      ],
      "logsBloom": "0x00000000000000000000000000000000000000000000000000000000000000000000000000000004000000000000000000000000000000000000000000000000000000000000000000000000000000000000000000000000002000000000000000000000000000000000000000000000000000000000000000000000000000000000000100000000000010000000000000000000000000000000000000000000000000000000000000000002000000000000000000000000000000000000000000000000000000000000000000000000000000000000000000000000000000000000000000000000000000000000000000000000000000000000000000000010",
      "type": "0x0",
      "transactionHash": "0xc2975841c8176c2da06993bf7809b3dcdfd868f274973c304791c73482216ca5",
      "transactionIndex": "0xa0",
      "blockHash": "0xb052152d45a01fefc57d00e26e3800832cf5b4ab1c5ca576007a1f0a88f547cf",
      "blockNumber": "0x162830b",
      "gasUsed": "0x294fe",
      "effectiveGasPrice": "0x62197fd6",
      "from": "0x6969acca95b7fb9631a114085eeebd161ec19f25",
      "to": "0x1a44076050125825900e736c501f859c50fe728c",
      "contractAddress": null
    }
  ],
  "libraries": [],
  "pending": [],
  "returns": {},
  "timestamp": 1756307786731,
  "chain": 1,
  "commit": "d7f91a8"
}