{
  "transactions": [
    {
      "hash": "0x5e25e393d53a8a35d7a37930483e3b39d2eadd424a026eaddb5670d085b0ae71",
      "transactionType": "CALL",
      "contractName": null,
      "contractAddress": "0x59a529070fbb61e6d6c91f952ccb7f35c34cf8aa",
      "function": "approve(address,uint256)",
      "arguments": [
        "0x4FeB6c50a69D0Cb29F77E307249C767607b04408",
        "3000000000000000000"
      ],
      "transaction": {
        "from": "0x6969acca95b7fb9631a114085eeebd161ec19f25",
        "to": "0x59a529070fbb61e6d6c91f952ccb7f35c34cf8aa",
        "gas": "0x26355",
        "value": "0x0",
        "input": "0x095ea7b30000000000000000000000004feb6c50a69d0cb29f77e307249c767607b0440800000000000000000000000000000000000000000000000029a2241af62c0000",
        "nonce": "0x96",
        "chainId": "0x1"
      },
      "additionalContracts": [],
      "isFixedGasLimit": false
    },
    {
      "hash": "0x532f383c1c5053b39a6747818b8b6bea2f00f1f4c75c4103bdb0ad3890c39ead",
      "transactionType": "CALL",
      "contractName": null,
      "contractAddress": "0x4feb6c50a69d0cb29f77e307249c767607b04408",
      "function": "send((uint32,bytes32,uint256,uint256,bytes,bytes,bytes),(uint256,uint256),address)",
      "arguments": [
        "(30184, 0x0000000000000000000000006969acca95b7fb9631a114085eeebd161ec19f25, 3000000000000000000, 2850000000000000000, 0x0003010011010000000000000000000000000000fde8, 0x, 0x)",
        "(44400485317737, 0)",
        "0x1804c8AB1F12E6bbf3894d4083f33e07309d1f38"
      ],
      "transaction": {
        "from": "0x6969acca95b7fb9631a114085eeebd161ec19f25",
        "to": "0x4feb6c50a69d0cb29f77e307249c767607b04408",
        "gas": "0x148f1a",
        "value": "0x2861cb27bc69",
        "input": "0xc7c7f5b3000000000000000000000000000000000000000000000000000000000000008000000000000000000000000000000000000000000000000000002861cb27bc6900000000000000000000000000000000000000000000000000000000000000000000000000000000000000001804c8ab1f12e6bbf3894d4083f33e07309d1f3800000000000000000000000000000000000000000000000000000000000075e80000000000000000000000006969acca95b7fb9631a114085eeebd161ec19f2500000000000000000000000000000000000000000000000029a2241af62c0000000000000000000000000000000000000000000000000000278d3be669dd000000000000000000000000000000000000000000000000000000000000000000e00000000000000000000000000000000000000000000000000000000000000120000000000000000000000000000000000000000000000000000000000000014000000000000000000000000000000000000000000000000000000000000000160003010011010000000000000000000000000000fde80000000000000000000000000000000000000000000000000000000000000000000000000000000000000000000000000000000000000000000000000000000000000000000000000000",
        "nonce": "0x97",
        "chainId": "0x1"
      },
      "additionalContracts": [],
      "isFixedGasLimit": false
    }
  ],
  "receipts": [
    {
      "status": "0x1",
      "cumulativeGasUsed": "0xbb1cc8",
      "logs": [
        {
          "address": "0x59a529070fbb61e6d6c91f952ccb7f35c34cf8aa",
          "topics": [
            "0x8c5be1e5ebec7d5bd14f71427d1e84f3dd0314c0f7b2291e5b200ac8c7c3b925",
            "0x0000000000000000000000006969acca95b7fb9631a114085eeebd161ec19f25",
            "0x0000000000000000000000004feb6c50a69d0cb29f77e307249c767607b04408"
          ],
          "data": "0x00000000000000000000000000000000000000000000000029a2241af62c0000",
          "blockHash": "0x706d1c3242cce0beca8cac7d2d02d7ef0ebdef6505035e887447ef17e11ffbdd",
          "blockNumber": "0x162834d",
          "blockTimestamp": "0x68af245f",
          "transactionHash": "0x5e25e393d53a8a35d7a37930483e3b39d2eadd424a026eaddb5670d085b0ae71",
          "transactionIndex": "0xa2",
          "logIndex": "0x1bd",
          "removed": false
        }
      ],
      "logsBloom": "0x00000000000000000000000000000000000000000000000000000000000000000000000002000000000080000000000000000000000000000000000000200000000000000000000000000000000000002000000000000000000000000000000000000000000000000000000000000000000020000000000000000000000008000000000000000000000000000000000000000000000000000000000000000000020000000000000000000000000000000000000000000000400000200000000000000000000000000004000000000000000000000000000000000000100000000010000000000000000000000000000000000000000000000000000000000000",
      "type": "0x0",
      "transactionHash": "0x5e25e393d53a8a35d7a37930483e3b39d2eadd424a026eaddb5670d085b0ae71",
      "transactionIndex": "0xa2",
      "blockHash": "0x706d1c3242cce0beca8cac7d2d02d7ef0ebdef6505035e887447ef17e11ffbdd",
      "blockNumber": "0x162834d",
      "gasUsed": "0xb523",
      "effectiveGasPrice": "0x65454a8a",
      "from": "0x6969acca95b7fb9631a114085eeebd161ec19f25",
      "to": "0x59a529070fbb61e6d6c91f952ccb7f35c34cf8aa",
      "contractAddress": null
    },
    {
      "status": "0x1",
      "cumulativeGasUsed": "0x7a513c",
      "logs": [
        {
          "address": "0x59a529070fbb61e6d6c91f952ccb7f35c34cf8aa",
          "topics": [
            "0xddf252ad1be2c89b69c2b068fc378daa952ba7f163c4a11628f55a4df523b3ef",
            "0x0000000000000000000000006969acca95b7fb9631a114085eeebd161ec19f25",
            "0x0000000000000000000000004feb6c50a69d0cb29f77e307249c767607b04408"
          ],
          "data": "0x00000000000000000000000000000000000000000000000029a2241af62c0000",
          "blockHash": "0xc140e63c3230e79c7649024f0e89b7872cb67a0e6dfba06226b9293eb2918230",
          "blockNumber": "0x162834e",
          "blockTimestamp": "0x68af246b",
          "transactionHash": "0x532f383c1c5053b39a6747818b8b6bea2f00f1f4c75c4103bdb0ad3890c39ead",
          "transactionIndex": "0x2f",
          "logIndex": "0xc3",
          "removed": false
        },
        {
          "address": "0xbb2ea70c9e858123480642cf96acbcce1372dce1",
          "topics": [
            "0x61ed099e74a97a1d7f8bb0952a88ca8b7b8ebd00c126ea04671f92a81213318a"
          ],
          "data": "0x000000000000000000000000173272739bd7aa6e4e214714048a9fe69945305900000000000000000000000000000000000000000000000000000d7824334e5b",
          "blockHash": "0xc140e63c3230e79c7649024f0e89b7872cb67a0e6dfba06226b9293eb2918230",
          "blockNumber": "0x162834e",
          "blockTimestamp": "0x68af246b",
          "transactionHash": "0x532f383c1c5053b39a6747818b8b6bea2f00f1f4c75c4103bdb0ad3890c39ead",
          "transactionIndex": "0x2f",
          "logIndex": "0xc4",
          "removed": false
        },
        {
          "address": "0xbb2ea70c9e858123480642cf96acbcce1372dce1",
          "topics": [
            "0x07ea52d82345d6e838192107d8fd7123d9c2ec8e916cd0aad13fd2b60db24644"
          ],
          "data": "0x000000000000000000000000000000000000000000000000000000000000006000000000000000000000000000000000000000000000000000000000000000c000000000000000000000000000000000000000000000000000000000000001400000000000000000000000000000000000000000000000000000000000000002000000000000000000000000589dedbd617e0cbcb916a9223f4d1300c294236b000000000000000000000000d56e4eab23cb81f43168f9f45211eb027b9ac7cc0000000000000000000000000000000000000000000000000000000000000003000000000000000000000000373a6e5c0c4e89e24819f00aa37ea370917aaff400000000000000000000000058249a2ec05c1978bf21df1f5ec1847e42455cf4000000000000000000000000a4fe5a5b9a846458a70cd0748228aed3bf65c2cd000000000000000000000000000000000000000000000000000000000000000500000000000000000000000000000000000000000000000000000168d4d87f9000000000000000000000000000000000000000000000000000001534fda74fce00000000000000000000000000000000000000000000000000000173aa8b7390000000000000000000000000000000000000000000000000000001647f5db79000000000000000000000000000000000000000000000000000000173aa8b7390",
          "blockHash": "0xc140e63c3230e79c7649024f0e89b7872cb67a0e6dfba06226b9293eb2918230",
          "blockNumber": "0x162834e",
          "blockTimestamp": "0x68af246b",
          "transactionHash": "0x532f383c1c5053b39a6747818b8b6bea2f00f1f4c75c4103bdb0ad3890c39ead",
          "transactionIndex": "0x2f",
          "logIndex": "0xc5",
          "removed": false
        },
        {
          "address": "0x1a44076050125825900e736c501f859c50fe728c",
          "topics": [
            "0x1ab700d4ced0c005b164c0f789fd09fcbb0156d4c2041b8a3bfbcd961cd1567f"
          ],
          "data": "0x00000000000000000000000000000000000000000000000000000000000000600000000000000000000000000000000000000000000000000000000000000120000000000000000000000000bb2ea70c9e858123480642cf96acbcce1372dce10000000000000000000000000000000000000000000000000000000000000099010000000000000001000075950000000000000000000000004feb6c50a69d0cb29f77e307249c767607b04408000075e80000000000000000000000007543e3829ecdd61a5fd7c187ff88c4cf46e30f73a734d14cddf9c236daff8bd85a77aa0c7916463f3c3ff7e4f340c985eaa874620000000000000000000000006969acca95b7fb9631a114085eeebd161ec19f2500000000002dc6c000000000000000000000000000000000000000000000000000000000000000000000000000002a000301001101000000000000000000000000000186a0010011010000000000000000000000000000fde800000000000000000000000000000000000000000000",
          "blockHash": "0xc140e63c3230e79c7649024f0e89b7872cb67a0e6dfba06226b9293eb2918230",
          "blockNumber": "0x162834e",
          "blockTimestamp": "0x68af246b",
          "transactionHash": "0x532f383c1c5053b39a6747818b8b6bea2f00f1f4c75c4103bdb0ad3890c39ead",
          "transactionIndex": "0x2f",
          "logIndex": "0xc6",
          "removed": false
        },
        {
          "address": "0x4feb6c50a69d0cb29f77e307249c767607b04408",
          "topics": [
            "0x85496b760a4b7f8d66384b9df21b381f5d1b1e79f229a47aaf4c232edc2fe59a",
            "0xa734d14cddf9c236daff8bd85a77aa0c7916463f3c3ff7e4f340c985eaa87462",
            "0x0000000000000000000000006969acca95b7fb9631a114085eeebd161ec19f25"
          ],
          "data": "0x00000000000000000000000000000000000000000000000000000000000075e800000000000000000000000000000000000000000000000029a2241af62c000000000000000000000000000000000000000000000000000029a2241af62c0000",
          "blockHash": "0xc140e63c3230e79c7649024f0e89b7872cb67a0e6dfba06226b9293eb2918230",
          "blockNumber": "0x162834e",
          "blockTimestamp": "0x68af246b",
          "transactionHash": "0x532f383c1c5053b39a6747818b8b6bea2f00f1f4c75c4103bdb0ad3890c39ead",
          "transactionIndex": "0x2f",
          "logIndex": "0xc7",
          "removed": false
        }
      ],
      "logsBloom": "0x00000000000000000000000000000000000000000000000000000000001000000400000002000000000080000000000000000000000000000000000000000000000002000000000080000008000000002000200000000000000000000000800000000000000000008000000000000000000020000010000000000010000008000000000000000000001000080000008000000000000000000000000000000200000000008000000000100000000000000000000000400000400440200000000000000002000000000004000280000000000000000000000000000000100000020000040000000000000000000000002000000000018000000000000000000000",
      "type": "0x0",
      "transactionHash": "0x532f383c1c5053b39a6747818b8b6bea2f00f1f4c75c4103bdb0ad3890c39ead",
      "transactionIndex": "0x2f",
      "blockHash": "0xc140e63c3230e79c7649024f0e89b7872cb67a0e6dfba06226b9293eb2918230",
      "blockNumber": "0x162834e",
      "gasUsed": "0x6732c",
      "effectiveGasPrice": "0x65454a8a",
      "from": "0x6969acca95b7fb9631a114085eeebd161ec19f25",
      "to": "0x4feb6c50a69d0cb29f77e307249c767607b04408",
      "contractAddress": null
    }
  ],
  "libraries": [],
  "pending": [],
  "returns": {},
  "timestamp": 1756308590155,
  "chain": 1,
  "commit": "d7f91a8"
}