{
  "transactions": [
    {
      "hash": "0x80275c33292eeb5d925c77fcd172f1d19e50cb146755dde3c08a228f9789b5c0",
      "transactionType": "CALL",
      "contractName": null,
      "contractAddress": "0x1a44076050125825900e736c501f859c50fe728c",
      "function": "setConfig(address,address,(uint32,uint32,bytes)[])",
      "arguments": [
        "0x7543e3829eCDd61a5fD7c187ff88c4cf46E30F73",
        "0xB5320B0B3a13cC860893E2Bd79FCd7e13484Dda2",
        "[(30101, 1, 0x00000000000000000000000000000000000000000000000000000000000027100000000000000000000000002cca08ae69e0c44b18a57ab2a87644234daebae4), (30101, 2, 0x0000000000000000000000000000000000000000000000000000000000000020000000000000000000000000000000000000000000000000000000000000000f00000000000000000000000000000000000000000000000000000000000000000000000000000000000000000000000000000000000000000000000000000003000000000000000000000000000000000000000000000000000000000000000200000000000000000000000000000000000000000000000000000000000000c000000000000000000000000000000000000000000000000000000000000000e000000000000000000000000000000000000000000000000000000000000000000000000000000000000000000000000000000000000000000000000000000003000000000000000000000000554833698ae0fb22ecc90b01222903fd62ca4b47000000000000000000000000a0af56164f02bdf9d75287ee77c568889f11d5f2000000000000000000000000c2a0c36f5939a14966705c7cec813163faeea1f0)]"
      ],
      "transaction": {
        "from": "0x6969acca95b7fb9631a114085eeebd161ec19f25",
        "to": "0x1a44076050125825900e736c501f859c50fe728c",
        "gas": "0x427af",
        "value": "0x0",
        "input": "0x6dbd9f900000000000000000000000007543e3829ecdd61a5fd7c187ff88c4cf46e30f73000000000000000000000000b5320b0b3a13cc860893e2bd79fcd7e13484dda20000000000000000000000000000000000000000000000000000000000000060000000000000000000000000000000000000000000000000000000000000000200000000000000000000000000000000000000000000000000000000000000400000000000000000000000000000000000000000000000000000000000000100000000000000000000000000000000000000000000000000000000000000759500000000000000000000000000000000000000000000000000000000000000010000000000000000000000000000000000000000000000000000000000000060000000000000000000000000000000000000000000000000000000000000004000000000000000000000000000000000000000000000000000000000000027100000000000000000000000002cca08ae69e0c44b18a57ab2a87644234daebae400000000000000000000000000000000000000000000000000000000000075950000000000000000000000000000000000000000000000000000000000000002000000000000000000000000000000000000000000000000000000000000006000000000000000000000000000000000000000000000000000000000000001800000000000000000000000000000000000000000000000000000000000000020000000000000000000000000000000000000000000000000000000000000000f00000000000000000000000000000000000000000000000000000000000000000000000000000000000000000000000000000000000000000000000000000003000000000000000000000000000000000000000000000000000000000000000200000000000000000000000000000000000000000000000000000000000000c000000000000000000000000000000000000000000000000000000000000000e000000000000000000000000000000000000000000000000000000000000000000000000000000000000000000000000000000000000000000000000000000003000000000000000000000000554833698ae0fb22ecc90b01222903fd62ca4b47000000000000000000000000a0af56164f02bdf9d75287ee77c568889f11d5f2000000000000000000000000c2a0c36f5939a14966705c7cec813163faeea1f0",
        "nonce": "0x6",
        "chainId": "0x2105"
      },
      "additionalContracts": [],
      "isFixedGasLimit": false
    }
  ],
  "receipts": [
    {
      "status": "0x1",
      "cumulativeGasUsed": "0x131ee24",
      "logs": [
        {
          "address": "0xb5320b0b3a13cc860893e2bd79fcd7e13484dda2",
          "topics": [
            "0x779cb2dd9d2bb1be1737d05435d744facbfb84a2a4912e21379d39beddcdc805"
          ],
          "data": "0x0000000000000000000000007543e3829ecdd61a5fd7c187ff88c4cf46e30f73000000000000000000000000000000000000000000000000000000000000759500000000000000000000000000000000000000000000000000000000000027100000000000000000000000002cca08ae69e0c44b18a57ab2a87644234daebae4",
          "blockHash": "0xb71616850bdb909555fa7db44dba24769795d01280965b2319029e0b846edd9d",
          "blockNumber": "0x21262ab",
          "transactionHash": "0x80275c33292eeb5d925c77fcd172f1d19e50cb146755dde3c08a228f9789b5c0",
          "transactionIndex": "0x8e",
          "logIndex": "0x1c4",
          "removed": false
        },
        {
          "address": "0xb5320b0b3a13cc860893e2bd79fcd7e13484dda2",
          "topics": [
            "0x82118522aa536ac0e96cc5c689407ae42b89d592aa133890a01f1509842f5081"
          ],
          "data": "0x0000000000000000000000007543e3829ecdd61a5fd7c187ff88c4cf46e30f7300000000000000000000000000000000000000000000000000000000000075950000000000000000000000000000000000000000000000000000000000000060000000000000000000000000000000000000000000000000000000000000000f00000000000000000000000000000000000000000000000000000000000000000000000000000000000000000000000000000000000000000000000000000003000000000000000000000000000000000000000000000000000000000000000200000000000000000000000000000000000000000000000000000000000000c000000000000000000000000000000000000000000000000000000000000000e000000000000000000000000000000000000000000000000000000000000000000000000000000000000000000000000000000000000000000000000000000003000000000000000000000000554833698ae0fb22ecc90b01222903fd62ca4b47000000000000000000000000a0af56164f02bdf9d75287ee77c568889f11d5f2000000000000000000000000c2a0c36f5939a14966705c7cec813163faeea1f0",
          "blockHash": "0xb71616850bdb909555fa7db44dba24769795d01280965b2319029e0b846edd9d",
          "blockNumber": "0x21262ab",
          "transactionHash": "0x80275c33292eeb5d925c77fcd172f1d19e50cb146755dde3c08a228f9789b5c0",
          "transactionIndex": "0x8e",
          "logIndex": "0x1c5",
          "removed": false
        }
      ],
      "logsBloom": "0x00000000000000000000000000000000000000000000000000000000000000000000000000000000000000000000000000000000000000000000000000000000000000000000000000000440000000000000000000000000002000000000000100000000000000000000000000000000000000000000000000000000000000000000000000000000000000000000000000000000000000000004000000000000000000000000000000000002000000000000000000000000000000000000000200000000000000000000000000000000000000000000000000000000000000000008000000000000000000000000000000000000000000000000000000000010",
      "type": "0x0",
      "transactionHash": "0x80275c33292eeb5d925c77fcd172f1d19e50cb146755dde3c08a228f9789b5c0",
      "transactionIndex": "0x8e",
      "blockHash": "0xb71616850bdb909555fa7db44dba24769795d01280965b2319029e0b846edd9d",
      "blockNumber": "0x21262ab",
      "gasUsed": "0x30217",
      "effectiveGasPrice": "0xda33af",
      "blobGasUsed": "0x0",
      "from": "0x6969acca95b7fb9631a114085eeebd161ec19f25",
      "to": "0x1a44076050125825900e736c501f859c50fe728c",
      "contractAddress": null,
      "l1BaseFeeScalar": "0x8dd",
      "l1BlobBaseFee": "0x1",
      "l1BlobBaseFeeScalar": "0x101c12",
      "l1Fee": "0x39f89a9b2",
      "l1GasPrice": "0x5df3bde6",
      "l1GasUsed": "0x10ff"
    }
  ],
  "libraries": [],
  "pending": [],
  "returns": {},
  "timestamp": 1756308027951,
  "chain": 8453,
  "commit": "d7f91a8"
}